:020000040800F2
:1000000000500020C90D0008490600084B060008F2
:100010004D0600084F0600085106000800000000C9
:10002000000000000000000000000000530600086F
:100030005506000800000000570600085906000891
:10004000110E0008110E0008110E0008110E000814
:10005000110E0008110E0008110E0008110E000804
:10006000110E0008110E0008110E0008110E0008F4
:10007000110E0008110E0008110E0008110E0008E4
:10008000110E0008110E0008110E0008DD04000812
:10009000F504000801050008110E0008110E000803
:1000A000110E0008110E0008110E0008110E0008B4
:1000B000110E0008110E0008110E0008110E0008A4
:1000C000110E0008110E0008110E0008110E000894
:1000D000110E0008110E0008110E0008110E000884
:1000E000110E0008110E0008110E0008000000009B
:1000F0000000000000000000000000000000000000
:0C01000000000000000000005FF808F1A3
:10010C0010B5054C237833B9044B13B10448AFF345
:10011C0000800123237010BD0C00002000000000A3
:10012C006C0E000808B5034B1BB103490348AFF331
:10013C00008008BD00000000100000206C0E0008BC
:10014C00064B9A6942F001029A619A6942F00402E4
:10015C009A61DA6942F00072DA617047001002406D
:10016C000D4A936943F0100393610C4B5A6842F4A7
:10017C0080125A605A6842F400125A605A6822F48B
:10018C0080025A605A6822F400025A60DA6842F41B
:10019C000052DA60704700BF0010024000100140AE
:1001AC00024AD36823F40053D36070470010014017
:1001BC00114B00225A605A6822F480525A605A68D5
:1001CC0022F400525A605A6822F480425A605A68EB
:1001DC0042F400425A605A6842F480325A605A68BB
:1001EC0042F400325A605A6822F480225A605A68EB
:1001FC0042F400225A60704700080140214B1A68F3
:10020C0042F400221A601A6842F480121A601E4BE3
:10021C00002119601A6822F002021A601A6842F072
:10022C0001021A605A6942F003025A611A6822F4F8
:10023C0080321A601A6822F004021A601A6822F0DE
:10024C0008021A601A6842F010021A601A6822F04A
:10025C0020021A601A6822F040021A601A6822F012
:10026C0080021A60D961D969084A0A40DA61DA69F0
:10027C0042F0527242F00312DA611A6822F0010263
:10028C001A60704700E100E00064004000FE80FC52
:10029C001E4B19880D2937D810B41D4BD3F80022EA
:1002AC0042F00102C3F80022D3F81C4201228A401A
:1002BC0024EA0204C3F81C42D3F80C421443C3F8DA
:1002CC000C42D3F804421443C3F8044201F1480C25
:1002DC0043F83C0003EBCC0CCCF80400D3F814022C
:1002EC0020EA0200C3F81402D3F81C020243C3F83C
:1002FC001C22D3F8002222F00102C3F800224B1C6E
:10030C00024A138010BC7047704700BF28000020C1
:10031C000064004008B52A4BD3F8B03113F0040F39
:10032C003DD1284A00235373254BD3F8B0315B0DD4
:10033C001360234BD3F8B03113F0020F38D1214B9B
:10034C0000229A731E4BD3F8B41101F00F011D4A11
:10035C001173D3F8B8111171D3F8B811090A51718E
:10036C00D3F8B811090C9171D3F8B811090ED171E9
:10037C00D3F8BC111172D3F8BC11090A5172D3F81D
:10038C00BC11090C9172D3F8BC11090ED172D96849
:10039C0041F02001D9601368FF2B0DD008BD094A2C
:1003AC0001235373064BD3F8B031DB081360C0E75D
:1003BC00044B01229A73C5E7FFF7F2FEEEE700BF8C
:1003CC00006400402C00002084B000B50DF1080C36
:1003DC008CE80E00022851D89DF80F209DF80E30A5
:1003EC001B0443EA02639DF80D2043EA02239DF8A7
:1003FC000C2013432E4A02EB0011C1F888319DF8F2
:10040C0013C09DF812301B0443EA0C639DF811C015
:10041C0043EA0C239DF810C043EA0C03C1F88C315D
:10042C0000F118034FEA031C02EB031359689DF803
:10043C0014E041EA0E01596052F80C30002342F8E6
:10044C000C309DF81530EBB9114652F80C2022F007
:10045C00040241F80C209DF81630F3B9144900F150
:10046C0018031B01CA5822F00202CA50104A183055
:10047C0000011358029943EA415313505DF804EB01
:10048C0004B07047012BE6D1094900F118031B0198
:10049C00CA5842F00402CA50DDE7012BE6D10449E8
:1004AC0000F118031B01CA5842F00202CA50DDE7E2
:1004BC0000640040054B5A6942F001025A61D3F8BE
:1004CC00802142F00102C3F8802170470064004093
:1004DC0008B5FFF7EFFF002300E00133014A934218
:1004EC00FBDD08BD40420F0008B5FFF759FEFFF7D2
:1004FC0011FF08BD08B5FFF753FEFFF70BFF08BD52
:10050C0082B00A4B9A6942F020029A619A6902F011
:10051C0020020092009A9A6942F004029A619B6947
:10052C0003F004030193019B02B0704700100240DA
:10053C0072B6FEE700B591B02822002106A800F0A3
:10054C0062FC00230193029303930493059301220D
:10055C0006924FF4803307930A9202220D920E9367
:10056C004FF4E0130F9306A800F040F980B90F2365
:10057C00019302210291002303934FF480620492B1
:10058C00059301A800F064FB20B911B05DF804FBE1
:10059C00FFF7CEFFFFF7CCFF00B583B0154C40F250
:1005AC00FF6626600823237300256573A573042357
:1005BC0023716371A371E37123726372A372E3728B
:1005CC0000F070F8FFF7B6FFFFF79AFFFFF7C8FDD2
:1005DC00FFF7B6FDFFF7ECFDFFF710FE294630469E
:1005EC00FFF756FEE368009394E80E002846FFF7E9
:1005FC00EBFEFEE73C00002082B00E4B9A6942F005
:10060C0001029A619A6902F001020092009ADA6979
:10061C0042F08052DA61DB6903F080530193019B55
:10062C00054A536823F0E06343F00073536002B053
:10063C00704700BF0010024000000140FEE7FEE7DB
:10064C00FEE7FEE7FEE770477047704708B500F01D
:10065C003BF808BD7047000010B504460E4B1A78E5
:10066C004FF47A73B3FBF2F30C4A1068B0FBF3F05F
:10067C0000F092F868B90F2C01D901200AE0002291
:10068C0021464FF0FF3000F077F8054B1C6000203E
:10069C0000E0012010BD00BF04000020000000207D
:1006AC000800002008B5074A136843F010031360D4
:1006BC00032000F04FF80F20FFF7CEFFFFF79CFF51
:1006CC00002008BD00200240034A1168034B1B7830
:1006DC000B441360704700BF4C0000200400002046
:1006EC00014B1868704700BF4C000020002808DB45
:1006FC000901C9B200F1604000F5614080F80013B7
:10070C00704700F00F000901C9B2014B1954704732
:10071C0014ED00E000B500F00700C0F1070CBCF1CF
:10072C00040F28BF4FF0040C031D062B0FD9C31E5A
:10073C004FF0FF3E0EFA0CF021EA000199400EFA40
:10074C0003FE22EA0E0241EA02005DF804FB0023DC
:10075C00EEE70000074AD36823F4E0631B041B0C8C
:10076C00000200F4E060034343F0BF6343F4003342
:10077C00D360704700ED00E010B50446054BD86817
:10078C00C0F30220FFF7C6FF01462046FFF7AEFF7D
:10079C0010BD00BF00ED00E00138B0F1807F0BD23E
:1007AC004FF0E0235861054AF02182F82310002015
:1007BC00986107221A6170470120704700ED00E034
:1007CC0082B0084B1B68084AA2FB03235B0A00FBA0
:1007DC0003F3019300BF019B5A1E0192002BF9D128
:1007EC0002B0704700000020D34D6210002800F0CA
:1007FC00F18170B582B00446036813F0010F2CD060
:10080C00994B5B6803F00C03042B1DD0964B5B6873
:10081C0003F00C03082B12D06368B3F5803F41D072
:10082C00002B55D103F1804303F504331A6822F4ED
:10083C0080321A601A6822F480221A6037E08A4BE0
:10084C005B6813F4803FE7D0874B1B6813F4003FC1
:10085C0003D06368002B00F0BF81236813F0020FF4
:10086C0075D0814B5B6813F00C0F5FD07E4B5B68CF
:10087C0003F00C03082B54D02369002B00F08A8062
:10088C007A4B01221A60FFF72BFF0546764B1B684B
:10089C0013F0020F75D1FFF723FF401B0228F5D987
:1008AC0003209EE1704A136843F48033136063683D
:1008BC0043B3FFF715FF05466B4B1B6813F4003F62
:1008CC00CBD1FFF70DFF401B6428F5D9032088E13D
:1008DC00B3F5A02F09D0644B1A6822F480321A6049
:1008EC001A6822F480221A60E1E703F18043A3F531
:1008FC003C331A6842F480221A601A6842F480323F
:10090C001A60D4E7FFF7ECFE0546574B1B6813F44F
:10091C00003FA2D0FFF7E4FE401B6428F5D903206A
:10092C005FE1514B5B6813F4803FA5D14E4B1B68C4
:10093C0013F0020F03D02369012B40F04F814A4A78
:10094C00136823F0F803616943EAC1031360236859
:10095C0013F0080F33D0A369002B5CD0434B01225A
:10096C00C3F88024FFF7BCFE05463F4B5B6A13F0CF
:10097C00020F21D1FFF7B4FE401B0228F5D903204A
:10098C002FE1394A136823F0F803616943EAC10384
:10099C001360DCE7354B00221A60FFF7A1FE054619
:1009AC00314B1B6813F0020FD1D0FFF799FE401B9F
:1009BC000228F5D9032014E10120FFF701FF236879
:1009CC0013F0040F00F09680274BDB6913F0805F67
:1009DC0034D1254BDA6942F08052DA61DB6903F0DD
:1009EC0080530193019B0125214B1B6813F4807FDD
:1009FC0026D0E368012B3DD0002B53D103F180436B
:100A0C0003F504331A6A22F001021A621A6A22F000
:100A1C0004021A6233E0154B0022C3F88024FFF75E
:100A2C005FFE0546104B5B6A13F0020FC7D0FFF751
:100A3C0057FE401B0228F5D90320D2E00025D3E74E
:100A4C000B4A136843F480731360FFF749FE0646A4
:100A5C00074B1B6813F4807FCBD1FFF741FE801B43
:100A6C006428F5D90320BCE000100240000042428B
:100A7C00007000405F4A136A43F001031362E3689D
:100A8C0033B3FFF72DFE06465A4B1B6A13F0020FC9
:100A9C002FD1FFF725FE801B41F288339842F3D902
:100AAC0003209EE0052B09D0524B1A6A22F001025A
:100ABC001A621A6A22F004021A62E0E74D4B1A6AB3
:100ACC0042F004021A621A6A42F001021A62D6E774
:100ADC00FFF706FE0646474B1B6A13F0020F08D0C1
:100AEC00FFF7FEFD801B41F288339842F3D90320B7
:100AFC0077E0E5B9E369002B72D03E4A526802F008
:100B0C000C02082A56D0022B17D03B4B00221A6637
:100B1C00FFF7E6FD0446374B1B6813F0007F47D008
:100B2C00FFF7DEFD001B0228F5D9032059E0314AFE
:100B3C00D36923F08053D361DCE72F4B00221A6674
:100B4C00FFF7CEFD05462B4B1B6813F0007F06D03C
:100B5C00FFF7C6FD401B0228F5D9032041E0236AAC
:100B6C00B3F5803F1AD023494B6823F47413226ADF
:100B7C00606A024313434B601F4B01221A66FFF756
:100B8C00AFFD04461B4B1B6813F0007F0ED1FFF723
:100B9C00A7FD001B0228F5D9032022E0154A536853
:100BAC0023F40033A1680B435360DCE7002018E00A
:100BBC00002016E0012B16D00E4B5B6803F480313D
:100BCC00226A914211D103F47013626A93420ED1DE
:100BDC00002006E001207047012002E0012000E027
:100BEC00002002B070BD0120FBE70120F9E70120D5
:100BFC00F7E700BF00100240000042420F4B5B6859
:100C0C0003F00C02082A01D00D487047C3F383424D
:100C1C000C49885C13F4803F0BD0084B5B68C3F322
:100C2C004043094AD35C064A02FB00F0B0FBF3F0E8
:100C3C007047064B03FB00F0704700BF00100240EA
:100C4C0000127A00980E0008940E000800093D006E
:100C5C00002800F0A08070B50D460446524B1B686E
:100C6C0003F007038B420BD24F4A136823F00703A0
:100C7C000B431360136803F007038B4240F08D8025
:100C8C00236813F0020F17D013F0040F04D0474A57
:100C9C00536843F4E0635360236813F0080F04D0E7
:100CAC00424A536843F460535360404A536823F0FC
:100CBC00F003A1680B435360236813F0010F31D08C
:100CCC006368012B20D0022B25D0384A126812F011
:100CDC00020F64D035494A6822F0030213434B607B
:100CEC00FFF7FEFC0646314B5B6803F00C036268B1
:100CFC00B3EB820F16D0FFF7F3FC801B41F2883365
:100D0C009842F0D9032045E0284A126812F4003FBB
:100D1C00E0D101203EE0254A126812F0007FD9D1C3
:100D2C00012037E0204B1B6803F00703AB420AD9C4
:100D3C001D4A136823F007032B431360136803F059
:100D4C000703AB422DD1236813F0040F06D0174ACA
:100D5C00536823F4E063E1680B435360236813F09A
:100D6C00080F07D0114A536823F46053216943EAF2
:100D7C00C1035360FFF742FF0C4B5B68C3F30313D3
:100D8C000B4AD35CD8400B4B18600B4B1868FFF721
:100D9C0063FC002070BD012070470120FAE70120A0
:100DAC00F8E70120F6E700BF0020024000100240E7
:100DBC00840E00080000002008000020FFF74AFC09
:100DCC000B480C490C4A002302E0D458C45004339D
:100DDC00C4188C42F9D3094A094C002301E0136072
:100DEC000432A242FBD300F017F8FFF7D5FB704793
:100DFC00000000200C000020B00E00080C000020A9
:100E0C0050000020FEE703460244934200D1704795
:100E1C0003F8011BF9E7000070B500260C4D0D4CD2
:100E2C00641BA410A64209D100F01AF800260A4D42
:100E3C000A4C641BA410A64205D170BD55F8043BA6
:100E4C0098470136EEE755F8043B98470136F2E730
:100E5C00A80E0008A80E0008A80E0008AC0E00088A
:100E6C00F8B500BFF8BC08BC9E467047F8B500BF8B
:080E7C00F8BC08BC9E4670475B
:100E84000000000000000000010203040607080936
:100E94000102000002030405060708090A0B0C0DF1
:040EA4000E0F10100D
:040EA800310100080C
:040EAC000D0100082C
:0C0EB0000024F40001000000100000000D
:0400000508000DC919
:00000001FF
