:020000040800F2
:100000000050002031070008B9050008BB050008B2
:10001000BD050008BF050008C1050008000000007C
:10002000000000000000000000000000C305000800
:10003000C505000800000000C7050008C905000844
:100040007907000879070008790700087907000890
:100050007907000879070008790700087907000880
:100060007907000879070008790700087907000870
:100070007907000879070008790700087907000860
:10008000790700087907000879070008D1040008FB
:10009000E9040008790700087907000879070008D3
:1000A0007907000879070008790700087907000830
:1000B0007907000879070008790700087907000820
:1000C0007907000879070008790700087907000810
:1000D0007907000879070008790700087907000800
:1000E0007907000879070008790700080000000078
:1000F0000000000000000000000000000000000000
:0C01000000000000000000005FF808F1A3
:10010C0010B5054C237833B9044B13B10448AFF345
:10011C0000800123237010BD0C00002000000000A3
:10012C00C407000808B5034B1BB103490348AFF3E0
:10013C00008008BD0000000010000020C40700086B
:10014C00064B9A6942F001029A619A6942F00402E4
:10015C009A61DA6942F00072DA617047001002406D
:10016C000D4A936943F0100393610C4B5A6842F4A7
:10017C0080125A605A6842F400125A605A6822F48B
:10018C0080025A605A6822F400025A60DA6842F41B
:10019C000052DA60704700BF0010024000100140AE
:1001AC00024AD36823F40053D36070470010014017
:1001BC00114B00225A605A6822F480525A605A68D5
:1001CC0022F400525A605A6822F480425A605A68EB
:1001DC0042F400425A605A6842F480325A605A68BB
:1001EC0042F400325A605A6822F480225A605A68EB
:1001FC0042F400225A607047000801401F4B1A68F5
:10020C0042F400221A601A6842F480121A601C4BE5
:10021C0000221A601A6822F002021A601A6842F070
:10022C0001021A605A6942F003025A611A6822F4F8
:10023C0080321A601A6822F004021A601A6822F0DE
:10024C0008021A601A6842F010021A601A6822F04A
:10025C0020021A601A6822F040021A601A6822F012
:10026C0080021A60D969074A0A40DA614FF4E01239
:10027C00DA611A6822F001021A60704700E100E0AE
:10028C000064004000FE80FC204BB3F800C0BCF1C1
:10029C000D0F37D8B9BB40051D4BD3F8002242F0E7
:1002AC000102C3F80022D3F81C12012202FA0CF24C
:1002BC0021EA0201C3F81C12D3F80C121143C3F843
:1002CC000C12D3F804121143C3F804120CF14801B8
:1002DC0043F8310003EBC1014860D3F8141221EA52
:1002EC000201C3F81412D3F81C120A43C3F81C22DF
:1002FC00D3F8002222F00102C3F800220CF1010312
:10030C00024A13807047C000C6E700BF28000020D7
:10031C00006400402B4B00221A602B4BD3F8B031F9
:10032C0013F0040F07D1274A00235373264BD3F83D
:10033C00B0315B0D1360244BD3F8B03103F00403E0
:10034C00012B32D0204BD3F8B03113F0020F34D143
:10035C001C4B00229A731C4BD3F8B41101F00F0103
:10036C00184A1173D3F8B8111171D3F8B811090ADE
:10037C005171D3F8B811090C9171D3F8B811090E59
:10038C00D171D3F8BC111172D3F8BC11090A517296
:10039C00D3F8BC11090C9172D3F8BC11090ED172AF
:1003AC00DA6842F02002DA607047064A5373064B53
:1003BC00D3F8B031DB081360C4E7024B01229A7307
:1003CC00C9E700BF2C0000200064004084B00DF190
:1003DC00040C8CE80E00022847D89DF80B209DF8E1
:1003EC000A301B0443EA02639DF8092043EA022306
:1003FC009DF8082013432B4A02EB0011C1F88831F9
:10040C009DF80FC09DF80E301B0443EA0C639DF859
:10041C000DC043EA0C239DF80CC043EA0C03C1F851
:10042C008C3100F1180302EB03135A689DF810107D
:10043C000A435A609DF81130CBB91A4A00F11803DF
:10044C001B01D15821F00401D150D158DDF804C062
:10045C0041EA4C51D1509DF81230CBB9114A1830A9
:10046C000001135823F00203135004B07047012B02
:10047C00F1D10C4A00F118031B01D15841F00401D1
:10048C00D150D158DDF804C041EACC01D150E2E79B
:10049C00012BEAD1034A18300001135843F0020330
:1004AC001350E2E700640040054B5A6942F0010228
:1004BC005A61D3F8802142F00102C3F880217047C1
:1004CC000064004008B5FFF7EFFF002300E00133A4
:1004DC00014A9342FBDD08BD40420F0008B5FFF70F
:1004EC005FFEFFF717FF08BD82B0064B9A6942F01A
:1004FC0004029A619B6903F004030193019B02B00F
:10050C00704700BF0010024000B583B0154C332378
:10051C00236008232373012666730025A5733523F6
:10052C0023716371A371E37123726372A372E3721B
:10053C0000F070F8FFF7D8FFFFF712FEFFF700FE90
:10054C00FFF736FEFFF75AFE31461720FFF79CFEE9
:10055C00E368009394E80E002846FFF737FFFFF797
:10056C00D9FEFCE73C00002082B00E4B9A6942F0A9
:10057C0001029A619A6902F001020092009ADA690A
:10058C0042F08052DA61DB6903F080530193019BE6
:10059C00054A536823F0E06343F00073536002B0E4
:1005AC00704700BF0010024000000140FEE7FEE76C
:1005BC00FEE7FEE7FEE770477047704708B500F0AE
:1005CC003BF808BD7047000010B504460E4B1A7876
:1005DC004FF47A73B3FBF2F30C4A1068B0FBF3F0F0
:1005EC0000F08CF868B90F2C01D901200AE0002228
:1005FC0021464FF0FF3000F071F8054B1C600020D5
:10060C0000E0012010BD00BF04000020000000200D
:10061C000800002008B5074A136843F01003136064
:10062C00032000F049F80F20FFF7CEFFFFF79CFFE7
:10063C00002008BD00200240034A1168034B1B78C0
:10064C000B441360704700BF4C00002004000020D6
:10065C00002808DB0901C9B200F1604000F56140D7
:10066C0080F80013704700F00F000901C9B2014B6C
:10067C001954704714ED00E000B500F00700C0F10C
:10068C00070CBCF1040F28BF4FF0040C031D062B04
:10069C000FD9C31E4FF0FF3E0EFA0CF021EA0001F9
:1006AC0099400EFA03FE22EA0E0241EA02005DF8BE
:1006BC0004FB0023EEE70000074AD36823F4E06351
:1006CC001B041B0C000200F4E060034343F0BF6307
:1006DC0043F40033D360704700ED00E010B50446DE
:1006EC00054BD868C0F30220FFF7C6FF0146204631
:1006FC00FFF7AEFF10BD00BF00ED00E00138B0F118
:10070C00807F0BD24FF0E0235861054AF02182F82C
:10071C0023100020986107221A617047012070474E
:10072C0000ED00E0FFF74EFF0B480C490C4A00238C
:10073C0002E0D458C4500433C4188C42F9D3094A8B
:10074C00094C002301E013600432A242FBD300F0F9
:10075C000FF8FFF7D9FE7047000000200C000020B6
:10076C00E40700080C00002050000020FEE7000009
:10077C0070B500260C4D0D4C641BA410A64209D17B
:10078C0000F01AF800260A4D0A4C641BA410A6426D
:10079C0005D170BD55F8043B98470136EEE755F886
:1007AC00043B98470136F2E7DC070008DC07000839
:1007BC00DC070008E0070008F8B500BFF8BC08BC6F
:1007CC009E467047F8B500BFF8BC08BC9E46704703
:0407DC0031010008DF
:0407E0000D010008FF
:0C07E4000024F4000100000010000000E0
:0400000508000731B7
:00000001FF
