:020000040800F2
:1000000000500020B50D00080D0600080F0600087E
:10001000110600081306000815060008000000007D
:1000200000000000000000000000000017060008AB
:1000300019060008000000001B0600081D06000845
:10004000FD0D0008FD0D0008FD0D0008FD0D000868
:10005000FD0D0008FD0D0008FD0D0008FD0D000858
:10006000FD0D0008FD0D0008FD0D0008FD0D000848
:10007000FD0D0008FD0D0008FD0D0008FD0D000838
:10008000FD0D0008FD0D0008FD0D000839040008F5
:10009000FD0D0008FD0D0008FD0D0008FD0D000818
:1000A000FD0D0008FD0D0008FD0D0008FD0D000808
:1000B000FD0D0008FD0D0008FD0D0008FD0D0008F8
:1000C000FD0D0008FD0D0008FD0D0008FD0D0008E8
:1000D000FD0D0008FD0D0008FD0D0008FD0D0008D8
:1000E000FD0D0008FD0D0008FD0D000800000000DA
:1000F0000000000000000000000000000000000000
:0C01000000000000000000005FF808F1A3
:10010C0010B5054C237833B9044B13B10448AFF345
:10011C0000800123237010BD0C00002000000000A3
:10012C00580E000808B5034B1BB103490348AFF345
:10013C00008008BD0000000010000020580E0008D0
:10014C00064B9A6942F001029A619A6942F00402E4
:10015C009A61DA6942F00072DA617047001002406D
:10016C00114B00225A605A6822F480525A605A6825
:10017C0022F400525A605A6822F480425A605A683B
:10018C0042F400425A605A6842F480325A605A680B
:10019C0042F400325A605A6822F480225A605A683B
:1001AC0042F400225A607047000801405B4B1A6809
:1001BC0042F400221A601A6842F480121A60584BFA
:1001CC0000221A60196821F002011960196841F0C7
:1001DC000101196003215961196821F480311960FA
:1001EC00196821F004011960196821F008011960DF
:1001FC00196841F010011960196821F0200119608B
:10020C00196821F040011960196821F0800119600A
:10021C00DA61D96941F08041D961D96941F0407105
:10022C00D961D96941F48001D961D96941F480312E
:10023C00D961D96941F00301D961D96921F48031BF
:10024C00D961D96941F40031D961D96921F480218E
:10025C00D961D96921F40021D961D96941F480119E
:10026C00D961D96941F40011D961D96941F480018E
:10027C00D961196821F001011960D3F88011C3F814
:10028C008021284B5B7BA3BB254AD2F8803123F01D
:10029C000403C2F88031234B9B7BA3BB204AD2F8CA
:1002AC00803123F00203C2F880311D4BD3F8842136
:1002BC0042F00802C3F88421D3F8842142F00402EE
:1002CC00C3F88421D3F8842142F00202C3F88421BC
:1002DC00D3F8842142F00102C3F88421D3F88021A1
:1002EC0042F4CC72C3F88021D3F88021C3F880216A
:1002FC007047012BCFD10A4AD2F8803143F0040366
:10030C00C2F88031C7E7012BCFD1054AD2F8803132
:10031C0043F00203C2F88031C7E700BF00E100E000
:10032C00006400402C00002010B41D4B198831B122
:10033C001C4AD2F8003243F00103C2F80032194BC8
:10034C00D3F81C0201228A4020EA0200C3F81C02E6
:10035C00D3F80C021043C3F80C02D3F80402104378
:10036C00C3F8040201F14800002443F8304003EBC9
:10037C00C0004460D3F8140220EA0200C3F814024F
:10038C00D3F81C020243C3F81C22D3F8002222F03B
:10039C000102C3F800220131014B198010BC7047D7
:1003AC0028000020006400401E49CB798A79120491
:1003BC0042EA03624B7942EA03220B791A431A4B45
:1003CC00C3F88821C87A8A7A120442EA0062487A11
:1003DC0042EA0022097A0A43C3F88C21D3F884211B
:1003EC0042F00802C3F88421D3F8842142F00402BD
:1003FC00C3F88421D3F8842142F00202C3F884218B
:10040C00D3F8842142F00102C3F884215A6942F0E6
:10041C0001025A61D3F8802142F00102C3F8802115
:10042C00704700BF2C000020006400402149CB79AC
:10043C008A79120442EA03624B7942EA03220B796D
:10044C001A431D4BC3F88821C87A8A7A120442EAEF
:10045C000062487A42EA0022097A0A43C3F88C21E6
:10046C00D3F8842142F00802C3F88421D3F8842104
:10047C0042F00402C3F88421D3F8842142F0020232
:10048C00C3F88421D3F8842142F00102C3F88421FB
:10049C005A6942F001025A61D3F8802142F00102FC
:1004AC00C3F88021002300E00133044A9342FBDDB2
:1004BC00704700BF2C0000200064004040420F0039
:1004CC0082B00A4B9A6942F020029A619A6902F052
:1004DC0020020092009A9A6942F004029A619B6988
:1004EC0003F004030193019B02B07047001002401B
:1004FC0072B6FEE700B591B02822002106A800F0E4
:10050C0078FC002301930293039304930593012237
:10051C0006924FF4803307930A9202220D920E93A7
:10052C004FF4E0130F9306A800F056F980B90F238F
:10053C00019302210291002303934FF480620492F1
:10054C00059301A800F07AFB20B911B05DF804FB0B
:10055C00FFF7CEFFFFF7CCFF08B5164B164A1A6013
:10056C0008221A7301225A7300249C731C715A714D
:10057C0002229A710322DA7104221A7205225A722B
:10058C0006229A720722DA7200F06EF8FFF7B2FFB9
:10059C00FFF796FFFFF7D4FDFFF7E2FDFFF706FE2E
:1005AC0021462120FFF7C0FEFFF7FEFE642000F07D
:1005BC007FF8FBE72C000020FFFF030082B00E4BFE
:1005CC009A6942F001029A619A6902F00102009262
:1005DC00009ADA6942F08052DA61DB6903F08053E9
:1005EC000193019B054A536823F0E06343F00073C9
:1005FC00536002B0704700BF001002400000014081
:10060C00FEE7FEE7FEE7FEE7FEE770477047704740
:10061C0008B500F03BF808BD7047000010B5044663
:10062C000E4B1A784FF47A73B3FBF2F30C4A106842
:10063C00B0FBF3F000F0A6F868B90F2C01D901203B
:10064C000AE0002221464FF0FF3000F08BF8054BFA
:10065C001C60002000E0012010BD00BF0400002041
:10066C00000000200800002008B5074A136843F07A
:10067C0010031360032000F063F80F20FFF7CEFF88
:10068C00FFF79CFF002008BD00200240034A1168C0
:10069C00034B1B780B441360704700BF3C000020D9
:1006AC0004000020014B1868704700BF3C0000207C
:1006BC0038B50446FFF7F6FF0546B4F1FF3F02D00C
:1006CC00044B1B781C44FFF7EDFF401BA042FAD3F0
:1006DC0038BD00BF04000020002808DB0901C9B2A6
:1006EC0000F1604000F5614080F80013704700F0A5
:1006FC000F000901C9B2014B1954704714ED00E009
:10070C0000B500F00700C0F1070CBCF1040F28BFC6
:10071C004FF0040C031D062B0FD9C31E4FF0FF3EE8
:10072C000EFA0CF021EA000199400EFA03FE22EABF
:10073C000E0241EA02005DF804FB0023EEE7000024
:10074C00074AD36823F4E0631B041B0C000200F47B
:10075C00E060034343F0BF6343F40033D36070475E
:10076C0000ED00E010B50446054BD868C0F302203C
:10077C00FFF7C6FF01462046FFF7AEFF10BD00BFD6
:10078C0000ED00E00138B0F1807F0BD24FF0E02398
:10079C005861054AF02182F8231000209861072245
:1007AC001A6170470120704700ED00E082B0084BE1
:1007BC001B68084AA2FB03235B0A00FB03F30193AB
:1007CC0000BF019B5A1E0192002BF9D102B0704759
:1007DC0000000020D34D6210002800F0F18170B5AC
:1007EC0082B00446036813F0010F2CD0994B5B6860
:1007FC0003F00C03042B1DD0964B5B6803F00C0329
:10080C00082B12D06368B3F5803F41D0002B55D133
:10081C0003F1804303F504331A6822F480321A6022
:10082C001A6822F480221A6037E08A4B5B6813F452
:10083C00803FE7D0874B1B6813F4003F03D06368FD
:10084C00002B00F0BF81236813F0020F75D0814B91
:10085C005B6813F00C0F5FD07E4B5B6803F00C03EE
:10086C00082B54D02369002B00F08A807A4B01228C
:10087C001A60FFF717FF0546764B1B6813F0020F43
:10088C0075D1FFF70FFF401B0228F5D903209EE11D
:10089C00704A136843F480331360636843B3FFF703
:1008AC0001FF05466B4B1B6813F4003FCBD1FFF7E0
:1008BC00F9FE401B6428F5D9032088E1B3F5A02F7D
:1008CC0009D0644B1A6822F480321A601A6822F438
:1008DC0080221A60E1E703F18043A3F53C331A68E8
:1008EC0042F480221A601A6842F480321A60D4E70B
:1008FC00FFF7D8FE0546574B1B6813F4003FA2D0F8
:10090C00FFF7D0FE401B6428F5D903205FE1514B63
:10091C005B6813F4803FA5D14E4B1B6813F0020F9C
:10092C0003D02369012B40F04F814A4A136823F00E
:10093C00F803616943EAC1031360236813F0080FDD
:10094C0033D0A369002B5CD0434B0122C3F8802425
:10095C00FFF7A8FE05463F4B5B6A13F0020F21D14F
:10096C00FFF7A0FE401B0228F5D903202FE1394ADE
:10097C00136823F0F803616943EAC1031360DCE7F1
:10098C00354B00221A60FFF78DFE0546314B1B6874
:10099C0013F0020FD1D0FFF785FE401B0228F5D9CA
:1009AC00032014E10120FFF701FF236813F0040F6B
:1009BC0000F09680274BDB6913F0805F34D1254B18
:1009CC00DA6942F08052DA61DB6903F080530193FB
:1009DC00019B0125214B1B6813F4807F26D0E36813
:1009EC00012B3DD0002B53D103F1804303F504338D
:1009FC001A6A22F001021A621A6A22F004021A62BE
:100A0C0033E0154B0022C3F88024FFF74BFE05465C
:100A1C00104B5B6A13F0020FC7D0FFF743FE401B6D
:100A2C000228F5D90320D2E00025D3E70B4A13683E
:100A3C0043F480731360FFF735FE0646074B1B68C3
:100A4C0013F4807FCBD1FFF72DFE801B6428F5D9E2
:100A5C000320BCE000100240000042420070004045
:100A6C005F4A136A43F001031362E36833B3FFF781
:100A7C0019FE06465A4B1B6A13F0020F2FD1FFF7D3
:100A8C0011FE801B41F288339842F3D903209EE07B
:100A9C00052B09D0524B1A6A22F001021A621A6A0B
:100AAC0022F004021A62E0E74D4B1A6A42F004028B
:100ABC001A621A6A42F001021A62D6E7FFF7F2FDD7
:100ACC000646474B1B6A13F0020F08D0FFF7EAFDEE
:100ADC00801B41F288339842F3D9032077E0E5B9C3
:100AEC00E369002B72D03E4A526802F00C02082ACD
:100AFC0056D0022B17D03B4B00221A66FFF7D2FDC3
:100B0C000446374B1B6813F0007F47D0FFF7CAFD34
:100B1C00001B0228F5D9032059E0314AD36923F090
:100B2C008053D361DCE72F4B00221A66FFF7BAFD26
:100B3C0005462B4B1B6813F0007F06D0FFF7B2FD68
:100B4C00401B0228F5D9032041E0236AB3F5803F0E
:100B5C001AD023494B6823F47413226A606A024347
:100B6C0013434B601F4B01221A66FFF79BFD044693
:100B7C001B4B1B6813F0007F0ED1FFF793FD001B7E
:100B8C000228F5D9032022E0154A536823F40033D8
:100B9C00A1680B435360DCE7002018E0002016E04E
:100BAC00012B16D00E4B5B6803F48031226A914204
:100BBC0011D103F47013626A93420ED1002006E047
:100BCC0001207047012002E0012000E0002002B06B
:100BDC0070BD0120FBE70120F9E70120F7E700BF1A
:100BEC0000100240000042420F4B5B6803F00C0205
:100BFC00082A01D00D487047C3F383420C49885C26
:100C0C0013F4803F0BD0084B5B68C3F34043094A95
:100C1C00D35C064A02FB00F0B0FBF3F07047064BC6
:100C2C0003FB00F0704700BF0010024000127A0076
:100C3C00840E0008800E000800093D00002800F01A
:100C4C00A08070B50D460446524B1B6803F0070399
:100C5C008B420BD24F4A136823F007030B431360EC
:100C6C00136803F007038B4240F08D80236813F068
:100C7C00020F17D013F0040F04D0474A536843F403
:100C8C00E0635360236813F0080F04D0424A5368A2
:100C9C0043F460535360404A536823F0F003A16857
:100CAC000B435360236813F0010F31D06368012BA1
:100CBC0020D0022B25D0384A126812F0020F64D0D3
:100CCC0035494A6822F0030213434B60FFF7EAFCF4
:100CDC000646314B5B6803F00C036268B3EB820F82
:100CEC0016D0FFF7DFFC801B41F288339842F0D915
:100CFC00032045E0284A126812F4003FE0D101209D
:100D0C003EE0254A126812F0007FD9D1012037E06D
:100D1C00204B1B6803F00703AB420AD91D4A13682A
:100D2C0023F007032B431360136803F00703AB4254
:100D3C002DD1236813F0040F06D0174A536823F4FF
:100D4C00E063E1680B435360236813F0080F07D08E
:100D5C00114A536823F46053216943EAC103536079
:100D6C00FFF742FF0C4B5B68C3F303130B4AD35CD6
:100D7C00D8400B4B18600B4B1868FFF74FFC00204A
:100D8C0070BD012070470120FAE70120F8E701202F
:100D9C00F6E700BF0020024000100240700E000871
:100DAC000000002008000020FFF736FC0B480C491F
:100DBC000C4A002302E0D458C4500433C4188C42AB
:100DCC00F9D3094A094C002301E013600432A24212
:100DDC00FBD300F017F8FFF7BFFB704700000020B3
:100DEC000C0000209C0E00080C000020400000208D
:100DFC00FEE703460244934200D1704703F8011BFF
:100E0C00F9E7000070B500260C4D0D4C641BA410C6
:100E1C00A64209D100F01AF800260A4D0A4C641BB0
:100E2C00A410A64205D170BD55F8043B9847013675
:100E3C00EEE755F8043B98470136F2E7940E0008AC
:100E4C00940E0008940E0008980E0008F8B500BF28
:100E5C00F8BC08BC9E467047F8B500BFF8BC08BC8F
:040E6C009E467047E7
:100E7000000000000000000001020304060708094A
:100E80000102000002030405060708090A0B0C0D05
:040E90000E0F101021
:040E94003101000820
:040E98000D01000840
:0C0E9C000024F400010000001000000021
:0400000508000DB52D
:00000001FF
